{
  "abi": [
    {
      "inputs": [
        {
          "internalType": "bytes",
          "name": "proof",
          "type": "bytes"
        },
        {
          "internalType": "uint256[]",
          "name": "pubSignals",
          "type": "uint256[]"
        }
      ],
      "name": "verifyProof",
      "outputs": [
        {
          "internalType": "bool",
          "name": "",
          "type": "bool"
        }
      ],
      "stateMutability": "view",
      "type": "function"
    }
  ],
  "bytecode": {
    "object": "0x608060405234801561001057600080fd5b50611326806100206000396000f3fe608060405234801561001057600080fd5b506004361061002b5760003560e01c80631e8e1e1314610030575b600080fd5b61004361003e366004611218565b610057565b604051901515815260200160405180910390f35b60006110e6565b600080600184846000805b821561008b575092938183058581029091039350909181830290039081610069565b505050600181111561009c57600080fd5b505060008112156100aa5783015b9392505050565b60405181602084028301815160208301925060005b828410156100f7578185526000805160206112d18339815191528451830991506020850194506020840193506100c6565b61010f6000805160206112d18339815191528361005e565b91506020850394506020840393508592505b82841115610166576000805160206112d18339815191528551830990506000805160206112d183398151915284518309818552601f1995860195909401939150610121565b5090915250505050565b6000805160206112d1833981519152811061018f576000805260206000f35b50565b6103208151146101a6576000805260206000f35b6101b4610260820151610170565b6101c2610280820151610170565b6101d06102a0820151610170565b6101de6102c0820151610170565b6101ec6102e0820151610170565b6101fa610300820151610170565b61018f610320820151610170565b60008060208501516102c085015260208301516102e08501526020800183015161030085015260406020018301516103208501526060602001830151610340850152608060200183015161036085015260a06020018301516103808501526000805160206112d183398151915260e06102c08601200690508060208501526000805160206112d18339815191526020808601200660408501526000805160206112d1833981519152604060e08501200660008501526000805160206112d183398151915260c06101208501200691508160608501526000805160206112d183398151915282820960a0850152506000805160206112d183398151915281820990506000805160206112d183398151915281820990506000805160206112d183398151915281820990508060808401526000805160206112d183398151915280600183030106905080610260840152806102808401526000805160206112d183398151915260e0610260840120068060c08501526000805160206112d183398151915281820991508160e08501526000805160206112d18339815191528183099150816101008501526000805160206112d18339815191528183099150816101208501526000805160206112d18339815191528183099150816101408501526000805160206112d1833981519152818309610160850152505060806101e091909101206000805160206112d183398151915290066101809091015250565b60016000805160206112d1833981519152806000805160206112d18339815191528360608601510301066008096102a0830152610467600261028084016100b1565b610260820151600191506000805160206112d1833981519152816102a0850151096102a0840152505050565b60006000805160206112d1833981519152806000805160206112d183398151915260208601516102a086015109830301069050806101a0830152505050565b60008060006000805160206112d18339815191526101a08601516103208601510892506000805160206112d183398151915260208601516102c08601510991506000805160206112d1833981519152610260850151830891506000805160206112d18339815191526040860151830891506000805160206112d183398151915260208601516102e08601510990506000805160206112d1833981519152610280850151820890506000805160206112d18339815191526040860151820890506000805160206112d183398151915281830991506000805160206112d183398151915260408601516102a08601510890506000805160206112d183398151915281830991506000805160206112d1833981519152610300850151830991506000805160206112d18339815191526000860151830991506000805160206112d183398151915260008601516102a08701510990506000805160206112d18339815191526000860151820990506000805160206112d18339815191528183089150506000805160206112d1833981519152816000805160206112d1833981519152840103069150506000805160206112d183398151915261028084015182099050806101c0840152505050565b6040518151815260208201516020820152825160408201526020830151606082015260408260808360066107d05a03fa9050806106dd576000805260206000f35b505050565b6000604051835181526020840151602082015284604082015260408160608360076107d05a03fa91508161071a576000805260206000f35b825160408201526020830151606082015260408360808360066107d05a03fa9150508061074b576000805260206000f35b50505050565b600060405183815284602082015285604082015260408160608360076107d05a03fa915081610784576000805260206000f35b825160408201526020830151606082015260408360808360066107d05a03fa915050806107b5576000805260206000f35b5050505050565b600060405183815284602082015285604082015260408360608360076107d05a03fa915050806107b5576000805260206000f35b6101e0820161080d6101e083018281518152602091820151910152565b6106dd6101808401516102208401836106e2565b60008061022084016000805160206112d183398151915260c0860151610260860151099250610892837f28307f23eb806a3f0512b5afb23b3247d20b573479e974baedb6e284e2c110b37f0271859f7101e55875c980ce3fbd259304b26071d42455b9b1d9e95790ab402c846107bc565b6000805160206112d1833981519152610280850151840992506108b88360008084610751565b6000805160206112d183398151915260c08601516102808601510992506108e28360008084610751565b6000805160206112d183398151915260c08601516102a086015109925061090c8360008084610751565b60c0850151925061095f837f1db4947b896f1c519573f17a302a450b6aa9d19d8ebf2c0ca0b91fb2e81f8cea7f289b07c9c313fee09dfe0f8568e21b34ddcc1eaae553f27afe910e1a571dd3f284610751565b6000805160206112d183398151915260a08601516102608601510892506000805160206112d18339815191526040860151840892506000805160206112d183398151915260a086015160020991506000805160206112d1833981519152610280850151830891506000805160206112d18339815191526040860151830891506000805160206112d183398151915282840992506000805160206112d183398151915260a086015160030991506000805160206112d18339815191526102a0850151830891506000805160206112d18339815191526040860151830891506000805160206112d183398151915282840992506000805160206112d18339815191526000860151840992506000805160206112d183398151915260c0860151840992506000805160206112d183398151915260008601516102a08701510991506000805160206112d18339815191526000860151830991506000805160206112d183398151915260c0860151830991506000805160206112d183398151915282840892506000805160206112d183398151915261018086015184089250610b088360e08601836106e2565b6000805160206112d18339815191526102c085015160208701510992506000805160206112d1833981519152610260850151840892506000805160206112d18339815191526040860151840892506000805160206112d18339815191526102e085015160208701510991506000805160206112d1833981519152610280850151830891506000805160206112d18339815191526040860151830891506000805160206112d183398151915282840992506000805160206112d18339815191526000860151840992506000805160206112d183398151915260c0860151840992506000805160206112d18339815191526020860151840992506000805160206112d183398151915261030085015184096000805160206112d1833981519152908103069250610c78837f22c78aada59122b199656e5a707ee612ad7b49da787c4ae76d0dbd0e87c7c4797f2bce31fbf28d5f063e8d6d4c6312a388dbca55c9691dff4a58c15f8f5a43bd1b84610751565b610c8661012085018261069c565b60808501519250610c9c836101608601836106e2565b6000805160206112d18339815191528384099250610cbf836101a08601836106e2565b610cd160e086015160208601836106e2565b610ce461010086015160608601836106e2565b610cf761012086015160a08601836106e2565b610d486101408601517f1bc255e700ca4ce722999dfee317926c9dc63c09d0c983cc2bc38da70270f57b7f168f75e4d6c73b22de08fa677d3da1e2f00764efbc231cc7992dcf8e095f742184610751565b610d996101608601517f0d4416f019b28451f142386bd646bf41320069bb1b117f5b607347e4a4018d0a7f06b4f0a076923878d433c70cba726a0412fc3041f0106b37a4b65d8daae4390684610751565b6101c085015192506000805160206112d18339815191528060c087015161032087015109840892506000805160206112d18339815191528060e087015161026087015109840892506000805160206112d18339815191528061010087015161028087015109840892506000805160206112d1833981519152806101208701516102a087015109840892506000805160206112d1833981519152806101408701516102c087015109840892506000805160206112d1833981519152806101608701516102e087015109840892506000805160206112d1833981519152806101808701516103008701510984086000805160206112d1833981519152908103069250610ea7836002600184610751565b60608501519250610ebd836101e08601836106e2565b6000805160206112d183398151915260608601516101808701510992506000805160206112d18339815191527f2b337de1c8c14f22ec9b9e2f96afef3652627366f8170a0a948dad4ac1bd5e80840992506107b5836102208601836106e2565b60006040516101e0830151815260206101e08401015160208201527f0c3d21e21cd043c82e91c68346831a743aa1a3ac7b3d7324606770a41f50fa4560408201527f012a9ee4812f857a1406ba79dd41c4c15c564d839afcffa1d345d093f175c16660608201527f1c010e1e3edcd060e688a44ecb3ec3714b8a21ac3fc1bcf0d0feb3dc11e09b6a60808201527f23ecf22905e0633ccf168f8c46227539e6f111d609d5080dfb42eb223c23bc9460a082015261022083015160c08201526020610220840101517f30644e72e131a029b85045b68181585d97816a916871ca8d3c208c16d87cfd47817f30644e72e131a029b85045b68181585d97816a916871ca8d3c208c16d87cfd47030690508060e0830152507f198e9393920d483a7260bfb731fb5d25f1aa493335a9e71297e485b7aef312c26101008201527f1800deef121f1e76426a00665e5c4479674322d4f75edadd46debd5cd992f6ed6101208201527f090689d0585ff075ec9e99ad690c3395bc4b313370b38ef355acdadcd122975b6101408201527f12c85ea5db8c6deb4aab71808dcb408fe3d1e7690c43d37b4ce6cc0166fa7daa6101608201526020816101808360086107d05a03fa90511692915050565b6040516102c081016040526110fa84610192565b611105838286610208565b61110e81610425565b6111188382610493565b61112281856104d2565b61112c81856107f0565b6111368185610821565b61113f81610f1d565b6102c082036040528060005260206000f35b634e487b7160e01b600052604160045260246000fd5b604051601f8201601f1916810167ffffffffffffffff8111828210171561119057611190611151565b604052919050565b600082601f8301126111a957600080fd5b8135602067ffffffffffffffff8211156111c5576111c5611151565b8160051b6111d4828201611167565b92835284810182019282810190878511156111ee57600080fd5b83870192505b8483101561120d578235825291830191908301906111f4565b979650505050505050565b6000806040838503121561122b57600080fd5b823567ffffffffffffffff8082111561124357600080fd5b818501915085601f83011261125757600080fd5b813560208282111561126b5761126b611151565b61127d601f8301601f19168201611167565b828152888284870101111561129157600080fd5b828286018383013760009281018201929092529094508501359150808211156112b957600080fd5b506112c685828601611198565b915050925092905056fe30644e72e131a029b85045b68181585d2833e84879b9709143e1f593f0000001a2646970667358221220117841d1e8698721c1bc94a3a3d24131c621575255a6d43b1ca5a5618b3db5aa64736f6c63430008110033",
    "linkReferences": {}
  },
  "methodIdentifiers": {
    "verifyProof(bytes,uint256[])": "1e8e1e13"
  },
  "id": 33
}