{
  "abi": [
    {
      "inputs": [
        {
          "internalType": "uint256",
          "name": "amount",
          "type": "uint256"
        }
      ],
      "name": "isMoreThanZero",
      "outputs": [],
      "stateMutability": "pure",
      "type": "function"
    }
  ],
  "bytecode": {
    "object": "0x608060405234801561001057600080fd5b50610108806100206000396000f3fe6080604052348015600f57600080fd5b506004361060285760003560e01c8063c2f6837514602d575b600080fd5b603c603836600460ba565b603e565b005b6000811160b75760405162461bcd60e51b815260206004820152603860248201527f436f6e7472616374202869734d6f72655468616e5a65726f293a20616d6f756e60448201527f74206d7573742062652067726561746572207468616e20300000000000000000606482015260840160405180910390fd5b50565b60006020828403121560cb57600080fd5b503591905056fea2646970667358221220f96467ef7ac9adab4dccb13683ae7a95dbd33239bb890feb757c501f53c1656264736f6c63430008110033",
    "linkReferences": {}
  },
  "methodIdentifiers": {
    "isMoreThanZero(uint256)": "c2f68375"
  },
  "id": 32
}