{
  "abi": [
    {
      "inputs": [],
      "name": "Semaphore__InvalidProof",
      "type": "error"
    },
    {
      "inputs": [],
      "name": "P1",
      "outputs": [
        {
          "components": [
            {
              "internalType": "uint256",
              "name": "X",
              "type": "uint256"
            },
            {
              "internalType": "uint256",
              "name": "Y",
              "type": "uint256"
            }
          ],
          "internalType": "struct Pairing.G1Point",
          "name": "",
          "type": "tuple"
        }
      ],
      "stateMutability": "pure",
      "type": "function"
    },
    {
      "inputs": [],
      "name": "P2",
      "outputs": [
        {
          "components": [
            {
              "internalType": "uint256[2]",
              "name": "X",
              "type": "uint256[2]"
            },
            {
              "internalType": "uint256[2]",
              "name": "Y",
              "type": "uint256[2]"
            }
          ],
          "internalType": "struct Pairing.G2Point",
          "name": "",
          "type": "tuple"
        }
      ],
      "stateMutability": "pure",
      "type": "function"
    },
    {
      "inputs": [
        {
          "components": [
            {
              "internalType": "uint256",
              "name": "X",
              "type": "uint256"
            },
            {
              "internalType": "uint256",
              "name": "Y",
              "type": "uint256"
            }
          ],
          "internalType": "struct Pairing.G1Point",
          "name": "p1",
          "type": "tuple"
        },
        {
          "components": [
            {
              "internalType": "uint256",
              "name": "X",
              "type": "uint256"
            },
            {
              "internalType": "uint256",
              "name": "Y",
              "type": "uint256"
            }
          ],
          "internalType": "struct Pairing.G1Point",
          "name": "p2",
          "type": "tuple"
        }
      ],
      "name": "addition",
      "outputs": [
        {
          "components": [
            {
              "internalType": "uint256",
              "name": "X",
              "type": "uint256"
            },
            {
              "internalType": "uint256",
              "name": "Y",
              "type": "uint256"
            }
          ],
          "internalType": "struct Pairing.G1Point",
          "name": "r",
          "type": "tuple"
        }
      ],
      "stateMutability": "view",
      "type": "function"
    },
    {
      "inputs": [
        {
          "components": [
            {
              "internalType": "uint256",
              "name": "X",
              "type": "uint256"
            },
            {
              "internalType": "uint256",
              "name": "Y",
              "type": "uint256"
            }
          ],
          "internalType": "struct Pairing.G1Point",
          "name": "p",
          "type": "tuple"
        }
      ],
      "name": "negate",
      "outputs": [
        {
          "components": [
            {
              "internalType": "uint256",
              "name": "X",
              "type": "uint256"
            },
            {
              "internalType": "uint256",
              "name": "Y",
              "type": "uint256"
            }
          ],
          "internalType": "struct Pairing.G1Point",
          "name": "r",
          "type": "tuple"
        }
      ],
      "stateMutability": "pure",
      "type": "function"
    },
    {
      "inputs": [
        {
          "components": [
            {
              "internalType": "uint256",
              "name": "X",
              "type": "uint256"
            },
            {
              "internalType": "uint256",
              "name": "Y",
              "type": "uint256"
            }
          ],
          "internalType": "struct Pairing.G1Point[]",
          "name": "p1",
          "type": "tuple[]"
        },
        {
          "components": [
            {
              "internalType": "uint256[2]",
              "name": "X",
              "type": "uint256[2]"
            },
            {
              "internalType": "uint256[2]",
              "name": "Y",
              "type": "uint256[2]"
            }
          ],
          "internalType": "struct Pairing.G2Point[]",
          "name": "p2",
          "type": "tuple[]"
        }
      ],
      "name": "pairingCheck",
      "outputs": [],
      "stateMutability": "view",
      "type": "function"
    },
    {
      "inputs": [
        {
          "components": [
            {
              "internalType": "uint256",
              "name": "X",
              "type": "uint256"
            },
            {
              "internalType": "uint256",
              "name": "Y",
              "type": "uint256"
            }
          ],
          "internalType": "struct Pairing.G1Point",
          "name": "p",
          "type": "tuple"
        },
        {
          "internalType": "uint256",
          "name": "s",
          "type": "uint256"
        }
      ],
      "name": "scalar_mul",
      "outputs": [
        {
          "components": [
            {
              "internalType": "uint256",
              "name": "X",
              "type": "uint256"
            },
            {
              "internalType": "uint256",
              "name": "Y",
              "type": "uint256"
            }
          ],
          "internalType": "struct Pairing.G1Point",
          "name": "r",
          "type": "tuple"
        }
      ],
      "stateMutability": "view",
      "type": "function"
    }
  ],
  "bytecode": {
    "object": "0x610bc861003a600b82828239805160001a60731461002d57634e487b7160e01b600052600060045260246000fd5b30600052607381538281f3fe730000000000000000000000000000000000000000301460806040526004361061006c5760003560e01c806318c77c95146100715780631de21b76146100a45780632f3ed539146100cf57806330332aea146100e45780636e1b6990146100f9578063a68007751461010c575b600080fd5b61008461007f36600461083b565b61011f565b604080518251815260209283015192810192909252015b60405180910390f35b6040805180820182526000808252602091820152815180830190925260018252600290820152610084565b6100e26100dd3660046109a4565b610193565b005b6100ec61049b565b60405161009b9190610a90565b610084610107366004610abc565b61055b565b61008461011a366004610ae7565b6105fc565b604080518082019091526000808252602082015261013b6106fe565b8351815260208085015181830152835160408301528301516060808301919091526000908360c08460066107d05a03fa90508061018b5760405163012a9af160e61b815260040160405180910390fd5b505092915050565b80518251146101b55760405163012a9af160e61b815260040160405180910390fd5b815160006101c4826006610b36565b905060008167ffffffffffffffff8111156101e1576101e161079b565b60405190808252806020026020018201604052801561020a578160200160208202803683370190505b50905060005b838110156104455785818151811061022a5761022a610b0a565b602002602001015160000151828260066102449190610b36565b61024f906000610b53565b8151811061025f5761025f610b0a565b60200260200101818152505085818151811061027d5761027d610b0a565b602002602001015160200151828260066102979190610b36565b6102a2906001610b53565b815181106102b2576102b2610b0a565b6020026020010181815250508481815181106102d0576102d0610b0a565b60209081029190910101515151826102e9836006610b36565b6102f4906002610b53565b8151811061030457610304610b0a565b60200260200101818152505084818151811061032257610322610b0a565b6020908102919091018101515101518261033d836006610b36565b610348906003610b53565b8151811061035857610358610b0a565b60200260200101818152505084818151811061037657610376610b0a565b60200260200101516020015160006002811061039457610394610b0a565b6020020151826103a5836006610b36565b6103b0906004610b53565b815181106103c0576103c0610b0a565b6020026020010181815250508481815181106103de576103de610b0a565b6020026020010151602001516001600281106103fc576103fc610b0a565b60200201518261040d836006610b36565b610418906005610b53565b8151811061042857610428610b0a565b60209081029190910101528061043d81610b66565b915050610210565b5061044e61071c565b6000602082602086026020860160086107d05a03fa905080158061047457508151600114155b156104925760405163012a9af160e61b815260040160405180910390fd5b50505050505050565b6104a361073a565b50604080516080810182527f198e9393920d483a7260bfb731fb5d25f1aa493335a9e71297e485b7aef312c28183019081527f1800deef121f1e76426a00665e5c4479674322d4f75edadd46debd5cd992f6ed6060830152815281518083019092527f090689d0585ff075ec9e99ad690c3395bc4b313370b38ef355acdadcd122975b82527f12c85ea5db8c6deb4aab71808dcb408fe3d1e7690c43d37b4ce6cc0166fa7daa60208381019190915281019190915290565b60408051808201909152600080825260208201527f30644e72e131a029b85045b68181585d2833e84879b9709143e1f593f000000182106105af5760405163012a9af160e61b815260040160405180910390fd5b6105b761075f565b835181526020808501519082015260408101839052600060608360808460076107d05a03fa90508061018b5760405163012a9af160e61b815260040160405180910390fd5b6040805180820190915260008082526020820152815115801561062157506020820151155b1561063f575050604080518082019091526000808252602082015290565b81517f30644e72e131a029b85045b68181585d97816a916871ca8d3c208c16d87cfd4711158061069357507f30644e72e131a029b85045b68181585d97816a916871ca8d3c208c16d87cfd47826020015110155b156106b15760405163012a9af160e61b815260040160405180910390fd5b60405180604001604052808360000151815260200183602001517f30644e72e131a029b85045b68181585d97816a916871ca8d3c208c16d87cfd476106f69190610b7f565b905292915050565b60405180608001604052806004906020820280368337509192915050565b60405180602001604052806001906020820280368337509192915050565b604051806040016040528061074d61077d565b815260200161075a61077d565b905290565b60405180606001604052806003906020820280368337509192915050565b60405180604001604052806002906020820280368337509192915050565b634e487b7160e01b600052604160045260246000fd5b6040805190810167ffffffffffffffff811182821017156107d4576107d461079b565b60405290565b604051601f8201601f1916810167ffffffffffffffff811182821017156108035761080361079b565b604052919050565b60006040828403121561081d57600080fd5b6108256107b1565b9050813581526020820135602082015292915050565b6000806080838503121561084e57600080fd5b610858848461080b565b9150610867846040850161080b565b90509250929050565b600067ffffffffffffffff82111561088a5761088a61079b565b5060051b60200190565b600082601f8301126108a557600080fd5b6040516040810181811067ffffffffffffffff821117156108c8576108c861079b565b80604052508060408401858111156108df57600080fd5b845b818110156108f95780358352602092830192016108e1565b509195945050505050565b600082601f83011261091557600080fd5b8135602061092a61092583610870565b6107da565b82815260079290921b8401810191818101908684111561094957600080fd5b8286015b8481101561099957608081890312156109665760008081fd5b61096e6107b1565b6109788983610894565b81526109878960408401610894565b8186015283529183019160800161094d565b509695505050505050565b60008060408084860312156109b857600080fd5b833567ffffffffffffffff808211156109d057600080fd5b818601915086601f8301126109e457600080fd5b813560206109f461092583610870565b82815260069290921b8401810191818101908a841115610a1357600080fd5b948201945b83861015610a3957610a2a8b8761080b565b82529486019490820190610a18565b97505087013593505080831115610a4f57600080fd5b5050610a5d85828601610904565b9150509250929050565b8060005b6002811015610a8a578151845260209384019390910190600101610a6b565b50505050565b6000608082019050610aa3828451610a67565b6020830151610ab56040840182610a67565b5092915050565b60008060608385031215610acf57600080fd5b610ad9848461080b565b946040939093013593505050565b600060408284031215610af957600080fd5b610b03838361080b565b9392505050565b634e487b7160e01b600052603260045260246000fd5b634e487b7160e01b600052601160045260246000fd5b8082028115828204841417610b4d57610b4d610b20565b92915050565b80820180821115610b4d57610b4d610b20565b600060018201610b7857610b78610b20565b5060010190565b81810381811115610b4d57610b4d610b2056fea2646970667358221220c58a2d4f97a87432578428163a0f924c90aa6a3a8604655c8d940794e9db172c64736f6c63430008110033",
    "linkReferences": {}
  },
  "methodIdentifiers": {
    "P1()": "1de21b76",
    "P2()": "30332aea",
    "addition(Pairing.G1Point,Pairing.G1Point)": "18c77c95",
    "negate(Pairing.G1Point)": "a6800775",
    "pairingCheck(Pairing.G1Point[],Pairing.G2Point[])": "2f3ed539",
    "scalar_mul(Pairing.G1Point,uint256)": "6e1b6990"
  },
  "id": 36
}