{
  "abi": [
    {
      "inputs": [
        {
          "internalType": "uint256[2]",
          "name": "",
          "type": "uint256[2]"
        }
      ],
      "name": "poseidon",
      "outputs": [
        {
          "internalType": "uint256",
          "name": "",
          "type": "uint256"
        }
      ],
      "stateMutability": "pure",
      "type": "function"
    }
  ],
  "bytecode": {
    "object": "0x61011961003a600b82828239805160001a60731461002d57634e487b7160e01b600052600060045260246000fd5b30600052607381538281f3fe730000000000000000000000000000000000000000301460806040526004361060335760003560e01c806329a5f2f6146038575b600080fd5b60496043366004605b565b50600090565b60405190815260200160405180910390f35b600060408284031215606c57600080fd5b82601f830112607a57600080fd5b6040516040810181811067ffffffffffffffff8211171560aa57634e487b7160e01b600052604160045260246000fd5b806040525080604084018581111560c057600080fd5b845b8181101560d857803583526020928301920160c2565b50919594505050505056fea26469706673582212204713e6059dea0ae92ba5aeaacb0a478c11d7b62b36fa368867be56f41393ea9c64736f6c63430008110033",
    "linkReferences": {}
  },
  "methodIdentifiers": {
    "poseidon(uint256[2])": "29a5f2f6"
  },
  "id": 31
}