{
  "abi": [
    {
      "inputs": [
        {
          "internalType": "uint256[5]",
          "name": "",
          "type": "uint256[5]"
        }
      ],
      "name": "poseidon",
      "outputs": [
        {
          "internalType": "uint256",
          "name": "",
          "type": "uint256"
        }
      ],
      "stateMutability": "pure",
      "type": "function"
    }
  ],
  "bytecode": {
    "object": "0x61011761003a600b82828239805160001a60731461002d57634e487b7160e01b600052600060045260246000fd5b30600052607381538281f3fe730000000000000000000000000000000000000000301460806040526004361060335760003560e01c80634937a258146038575b600080fd5b60496043366004605b565b50600090565b60405190815260200160405180910390f35b600060a08284031215606c57600080fd5b82601f830112607a57600080fd5b60405160a0810181811067ffffffffffffffff8211171560aa57634e487b7160e01b600052604160045260246000fd5b6040528060a084018581111560be57600080fd5b845b8181101560d657803583526020928301920160c0565b50919594505050505056fea26469706673582212204fc3317d8d6f274a2bc61dd99c57c7e6599f3b5dc26ebc5009e2534e39e621cf64736f6c63430008110033",
    "linkReferences": {}
  },
  "methodIdentifiers": {
    "poseidon(uint256[5])": "4937a258"
  },
  "id": 16
}