{
  "abi": [
    {
      "inputs": [
        {
          "internalType": "contract ISemaphoreVerifier",
          "name": "_verifier",
          "type": "address"
        }
      ],
      "stateMutability": "nonpayable",
      "type": "constructor"
    },
    {
      "inputs": [],
      "name": "Semaphore__CallerIsNotThePollCoordinator",
      "type": "error"
    },
    {
      "inputs": [],
      "name": "Semaphore__GroupAlreadyExists",
      "type": "error"
    },
    {
      "inputs": [],
      "name": "Semaphore__GroupDoesNotExist",
      "type": "error"
    },
    {
      "inputs": [],
      "name": "Semaphore__MerkleTreeDepthIsNotSupported",
      "type": "error"
    },
    {
      "inputs": [],
      "name": "Semaphore__PollHasAlreadyBeenStarted",
      "type": "error"
    },
    {
      "inputs": [],
      "name": "Semaphore__PollIsNotOngoing",
      "type": "error"
    },
    {
      "inputs": [],
      "name": "Semaphore__YouAreUsingTheSameNillifierTwice",
      "type": "error"
    },
    {
      "anonymous": false,
      "inputs": [
        {
          "indexed": true,
          "internalType": "uint256",
          "name": "groupId",
          "type": "uint256"
        },
        {
          "indexed": false,
          "internalType": "uint256",
          "name": "merkleTreeDepth",
          "type": "uint256"
        },
        {
          "indexed": false,
          "internalType": "uint256",
          "name": "zeroValue",
          "type": "uint256"
        }
      ],
      "name": "GroupCreated",
      "type": "event"
    },
    {
      "anonymous": false,
      "inputs": [
        {
          "indexed": true,
          "internalType": "uint256",
          "name": "groupId",
          "type": "uint256"
        },
        {
          "indexed": false,
          "internalType": "uint256",
          "name": "index",
          "type": "uint256"
        },
        {
          "indexed": false,
          "internalType": "uint256",
          "name": "identityCommitment",
          "type": "uint256"
        },
        {
          "indexed": false,
          "internalType": "uint256",
          "name": "merkleTreeRoot",
          "type": "uint256"
        }
      ],
      "name": "MemberAdded",
      "type": "event"
    },
    {
      "anonymous": false,
      "inputs": [
        {
          "indexed": true,
          "internalType": "uint256",
          "name": "groupId",
          "type": "uint256"
        },
        {
          "indexed": false,
          "internalType": "uint256",
          "name": "index",
          "type": "uint256"
        },
        {
          "indexed": false,
          "internalType": "uint256",
          "name": "identityCommitment",
          "type": "uint256"
        },
        {
          "indexed": false,
          "internalType": "uint256",
          "name": "merkleTreeRoot",
          "type": "uint256"
        }
      ],
      "name": "MemberRemoved",
      "type": "event"
    },
    {
      "anonymous": false,
      "inputs": [
        {
          "indexed": true,
          "internalType": "uint256",
          "name": "groupId",
          "type": "uint256"
        },
        {
          "indexed": false,
          "internalType": "uint256",
          "name": "index",
          "type": "uint256"
        },
        {
          "indexed": false,
          "internalType": "uint256",
          "name": "identityCommitment",
          "type": "uint256"
        },
        {
          "indexed": false,
          "internalType": "uint256",
          "name": "newIdentityCommitment",
          "type": "uint256"
        },
        {
          "indexed": false,
          "internalType": "uint256",
          "name": "merkleTreeRoot",
          "type": "uint256"
        }
      ],
      "name": "MemberUpdated",
      "type": "event"
    },
    {
      "anonymous": false,
      "inputs": [
        {
          "indexed": false,
          "internalType": "uint256",
          "name": "pollId",
          "type": "uint256"
        },
        {
          "indexed": true,
          "internalType": "address",
          "name": "coordinator",
          "type": "address"
        }
      ],
      "name": "PollCreated",
      "type": "event"
    },
    {
      "anonymous": false,
      "inputs": [
        {
          "indexed": false,
          "internalType": "uint256",
          "name": "pollId",
          "type": "uint256"
        },
        {
          "indexed": true,
          "internalType": "address",
          "name": "coordinator",
          "type": "address"
        },
        {
          "indexed": false,
          "internalType": "uint256",
          "name": "decryptionKey",
          "type": "uint256"
        }
      ],
      "name": "PollEnded",
      "type": "event"
    },
    {
      "anonymous": false,
      "inputs": [
        {
          "indexed": false,
          "internalType": "uint256",
          "name": "pollId",
          "type": "uint256"
        },
        {
          "indexed": true,
          "internalType": "address",
          "name": "coordinator",
          "type": "address"
        },
        {
          "indexed": false,
          "internalType": "uint256",
          "name": "encryptionKey",
          "type": "uint256"
        }
      ],
      "name": "PollStarted",
      "type": "event"
    },
    {
      "anonymous": false,
      "inputs": [
        {
          "indexed": true,
          "internalType": "uint256",
          "name": "pollId",
          "type": "uint256"
        },
        {
          "indexed": false,
          "internalType": "uint256",
          "name": "vote",
          "type": "uint256"
        }
      ],
      "name": "VoteAdded",
      "type": "event"
    },
    {
      "inputs": [
        {
          "internalType": "uint256",
          "name": "pollId",
          "type": "uint256"
        },
        {
          "internalType": "uint256",
          "name": "identityCommitment",
          "type": "uint256"
        }
      ],
      "name": "addVoter",
      "outputs": [],
      "stateMutability": "nonpayable",
      "type": "function"
    },
    {
      "inputs": [
        {
          "internalType": "uint256",
          "name": "vote",
          "type": "uint256"
        },
        {
          "internalType": "uint256",
          "name": "nullifierHash",
          "type": "uint256"
        },
        {
          "internalType": "uint256",
          "name": "pollId",
          "type": "uint256"
        },
        {
          "internalType": "uint256[8]",
          "name": "proof",
          "type": "uint256[8]"
        }
      ],
      "name": "castVote",
      "outputs": [],
      "stateMutability": "nonpayable",
      "type": "function"
    },
    {
      "inputs": [
        {
          "internalType": "uint256",
          "name": "pollId",
          "type": "uint256"
        },
        {
          "internalType": "address",
          "name": "coordinator",
          "type": "address"
        },
        {
          "internalType": "uint256",
          "name": "merkleTreeDepth",
          "type": "uint256"
        }
      ],
      "name": "createPoll",
      "outputs": [],
      "stateMutability": "nonpayable",
      "type": "function"
    },
    {
      "inputs": [
        {
          "internalType": "uint256",
          "name": "pollId",
          "type": "uint256"
        },
        {
          "internalType": "uint256",
          "name": "decryptionKey",
          "type": "uint256"
        }
      ],
      "name": "endPoll",
      "outputs": [],
      "stateMutability": "nonpayable",
      "type": "function"
    },
    {
      "inputs": [
        {
          "internalType": "uint256",
          "name": "groupId",
          "type": "uint256"
        }
      ],
      "name": "getMerkleTreeDepth",
      "outputs": [
        {
          "internalType": "uint256",
          "name": "",
          "type": "uint256"
        }
      ],
      "stateMutability": "view",
      "type": "function"
    },
    {
      "inputs": [
        {
          "internalType": "uint256",
          "name": "groupId",
          "type": "uint256"
        }
      ],
      "name": "getMerkleTreeRoot",
      "outputs": [
        {
          "internalType": "uint256",
          "name": "",
          "type": "uint256"
        }
      ],
      "stateMutability": "view",
      "type": "function"
    },
    {
      "inputs": [
        {
          "internalType": "uint256",
          "name": "groupId",
          "type": "uint256"
        }
      ],
      "name": "getNumberOfMerkleTreeLeaves",
      "outputs": [
        {
          "internalType": "uint256",
          "name": "",
          "type": "uint256"
        }
      ],
      "stateMutability": "view",
      "type": "function"
    },
    {
      "inputs": [
        {
          "internalType": "uint256",
          "name": "pollId",
          "type": "uint256"
        },
        {
          "internalType": "uint256",
          "name": "encryptionKey",
          "type": "uint256"
        }
      ],
      "name": "startPoll",
      "outputs": [],
      "stateMutability": "nonpayable",
      "type": "function"
    },
    {
      "inputs": [],
      "name": "verifier",
      "outputs": [
        {
          "internalType": "contract ISemaphoreVerifier",
          "name": "",
          "type": "address"
        }
      ],
      "stateMutability": "view",
      "type": "function"
    }
  ],
  "bytecode": {
    "object": "0x608060405234801561001057600080fd5b50604051610a1f380380610a1f83398101604081905261002f91610054565b600180546001600160a01b0319166001600160a01b0392909216919091179055610084565b60006020828403121561006657600080fd5b81516001600160a01b038116811461007d57600080fd5b9392505050565b61098c806100936000396000f3fe608060405234801561001057600080fd5b50600436106100935760003560e01c80636389e107116100665780636389e10714610121578063b359dd4314610141578063bbd8c7db14610154578063dabc4d5114610167578063f391f75d1461018a57600080fd5b80630a120bb0146100985780632b7ac3f3146100ad578063517097be146100dd578063638480be146100f0575b600080fd5b6100ab6100a636600461081a565b61019d565b005b6001546100c0906001600160a01b031681565b6040516001600160a01b0390911681526020015b60405180910390f35b6100ab6100eb36600461083c565b61022e565b6101136100fe366004610883565b60009081526020819052604090206002015490565b6040519081526020016100d4565b61011361012f366004610883565b60009081526020819052604090205490565b6100ab61014f36600461081a565b61039d565b6100ab61016236600461081a565b610480565b610113610175366004610883565b60009081526020819052604090206001015490565b6100ab61019836600461089c565b61055d565b60008281526002602052604090205482906001600160a01b031633146101d65760405163e4a34e1560e01b815260040160405180910390fd5b6000838152600260208190526040822054600160a01b900460ff1690811115610201576102016108e0565b1461021f576040516367f5eebb60e01b815260040160405180910390fd5b61022983836105ef565b505050565b6001600083815260026020819052604090912054600160a01b900460ff169081111561025c5761025c6108e0565b1461027a5760405163e1b6c09160e01b815260040160405180910390fd5b600082815260026020908152604080832086845260010190915290205460ff16156102b857604051632523419d60e21b815260040160405180910390fd5b60008281526020819052604090819020805460019182015491549251634d65479560e11b815290926001600160a01b031690639aca8f2a9061030890849089908b908a908a908a906004016108f6565b60006040518083038186803b15801561032057600080fd5b505afa158015610334573d6000803e3d6000fd5b50505060008581526002602090815260408083208984526001908101835292819020805460ff191690931790925590518881528692507fd4d383f8ed189d1368006d33d0ae7bf1e4fe9f3f86f205ae60d7a50bbba58b38910160405180910390a2505050505050565b60008281526002602052604090205482906001600160a01b031633146103d65760405163e4a34e1560e01b815260040160405180910390fd5b6000838152600260208190526040822054600160a01b900460ff1690811115610401576104016108e0565b1461041f576040516367f5eebb60e01b815260040160405180910390fd5b600083815260026020908152604091829020805460ff60a01b1916600160a01b179055815185815290810184905233917f426c5e6bd38728569cc4e1f0a309f506d4c1bc56189920d59343af2639b60d3e91015b60405180910390a2505050565b60008281526002602052604090205482906001600160a01b031633146104b95760405163e4a34e1560e01b815260040160405180910390fd5b6001600084815260026020819052604090912054600160a01b900460ff16908111156104e7576104e76108e0565b146105055760405163e1b6c09160e01b815260040160405180910390fd5b600083815260026020908152604091829020805460ff60a01b1916600160a11b179055815185815290810184905233917f4a0c303670c99ff9b9eab216bcca4f03007fbece83818599a2946ea62c541fde9101610473565b601081108061056c5750602081115b1561058a5760405163767b278960e11b815260040160405180910390fd5b6105948382610709565b60008381526002602090815260409182902080546001600160a01b0319166001600160a01b03861690811790915591518581527fb447d309fd3b1a27466cdb08ccc02ee5188e9c71fc58af042bafe3e0bb4512309101610473565b60008281526020819052604090205460000361061e5760405163029f057960e01b815260040160405180910390fd5b600082815260208190526040908190209051630b4381fd60e11b815260048101919091526024810182905273__$f0a60f8f83d7cc9765895fb855a8b442ec$__9063168703fa9060440160006040518083038186803b15801561068057600080fd5b505af4158015610694573d6000803e3d6000fd5b50505060008381526020819052604081206001808201546002909201549193506106bd9161092f565b604080518281526020810186905290810184905290915084907f19239b3f93cd10558aaf11423af70c77763bf54f52bcc75bfa74d4d13548cde99060600160405180910390a250505050565b6000828152602081905260409020541561073657604051638121725b60e01b815260040160405180910390fd5b600060088360405160200161074d91815260200190565b60408051808303601f1901815282825280516020918201206000888152918290529190206304257eed60e21b835260048301526024820185905290911c60448201819052915073__$f0a60f8f83d7cc9765895fb855a8b442ec$__90631095fbb49060640160006040518083038186803b1580156107ca57600080fd5b505af41580156107de573d6000803e3d6000fd5b505060408051858152602081018590528693507f0d000126c26c1bbe400fd2332187f75d58b69306f9ec47b408686189d3a00833925001610473565b6000806040838503121561082d57600080fd5b50508035926020909101359150565b60008060008061016080868803121561085457600080fd5b85359450602086013593506040860135925086818701111561087557600080fd5b509295919450926060019150565b60006020828403121561089557600080fd5b5035919050565b6000806000606084860312156108b157600080fd5b8335925060208401356001600160a01b03811681146108cf57600080fd5b929592945050506040919091013590565b634e487b7160e01b600052602160045260246000fd5b60006101a08201905087825286602083015285604083015284606083015261010084608084013782610180830152979650505050505050565b8181038181111561095057634e487b7160e01b600052601160045260246000fd5b9291505056fea26469706673582212200cb9d0adf4b28d35126709a02fb0bbd089e644d4a6ba66b2230d5393400a78b264736f6c63430008110033",
    "linkReferences": {
      "../../node_modules/@zk-kit/incremental-merkle-tree.sol/IncrementalBinaryTree.sol": {
        "IncrementalBinaryTree": [
          {
            "start": 1758,
            "length": 20
          },
          {
            "start": 2088,
            "length": 20
          }
        ]
      }
    }
  },
  "methodIdentifiers": {
    "addVoter(uint256,uint256)": "0a120bb0",
    "castVote(uint256,uint256,uint256,uint256[8])": "517097be",
    "createPoll(uint256,address,uint256)": "f391f75d",
    "endPoll(uint256,uint256)": "bbd8c7db",
    "getMerkleTreeDepth(uint256)": "6389e107",
    "getMerkleTreeRoot(uint256)": "dabc4d51",
    "getNumberOfMerkleTreeLeaves(uint256)": "638480be",
    "startPoll(uint256,uint256)": "b359dd43",
    "verifier()": "2b7ac3f3"
  },
  "id": 34
}